:100000000C942A000C943C000C943C000C943C0092
:100010000C943C000C943C000C943C000C943C0070
:100020000C943C000C944F040C943C000C943C0049
:100030000C943C000C9462000C943C000C943C002A
:100040000C943C000C943C000C943C000C943C0040
:100050000C943C0011241FBECFE5D8E0DEBFCDBF1D
:1000600020E0A0E6B0E001C01D92AD36B207E1F796
:100070000E9471000C94F5060C94000084B3836018
:1000800084BB87B3886087BB8BE683BF089588EC09
:100090008CBF85B3816085BB089515BA08959C0116
:1000A00040E050E060E472E48FE090E00E94D3060C
:1000B0002150310930BD29B988E98AB98EE880BD5F
:1000C000789408951F920F920FB60F9211248F9378
:1000D0008CB1809362008F910F900FBE0F901F9094
:1000E00018954F925F926F927F928F929F92AF92EC
:1000F000BF92CF92DF92EF92FF920E9441040E9442
:100100004A0490936C0080936B0080E895E20E9413
:100110004F000E94FB0180916200813419F40E941B
:10012000FE0104C0823411F40E94FB0180916B0037
:1001300090916C00892B09F04FC187B3826087BB17
:1001400010926A00109269008091600090916100A5
:10015000892BA9F40E944A04909368008093670059
:1001600081E090E090936100809360002FEF89E63A
:1001700098E1215080409040E1F700C0000080915C
:10018000600090916100019751F40E944A0490939D
:10019000660080936500109261001092600084B345
:1001A000806C84BB81E08ABB2FEF81EE94E021500C
:1001B00080409040E1F700C000000E9466040E9469
:1001C0007E0570936A00609369002FEF89E698E1DD
:1001D000215080409040E1F700C000000E9466047A
:1001E0000E947E0570936A00609369002FEF89E694
:1001F00098E1215080409040E1F700C000000E944B
:100200003D046091690070916A00072E000C880B14
:10021000990B0E94B60520E030E040E05FE30E94C9
:1002200066069B01AC010E949B040E947E05CB01E7
:100230000E94D9032FEF81EE94E02150804090403E
:10024000E1F700C0000085B3806485BB85B380689A
:1002500085BB2FEF85EA9EE0215080409040E1F77A
:1002600000C000000E9466046B017C012FEF85EA4C
:100270009EE0215080409040E1F700C000000E94C5
:10028000710304C081E090E00E940D030E946604A7
:100290004B015C0120E030E040EA51E4C701B601C7
:1002A0000E949B042B013C016091690070916A00DF
:1002B0008091670090916800681B790B072E000CF5
:1002C000880B990B0E94B6059B01AC01C301B201DA
:1002D0000E949A049B01AC01C501B4010E9407056C
:1002E000882384F22FEF81EE94E0215080409040EB
:1002F000E1F700C000000E943E002FEF81EE94E085
:10030000215080409040E1F700C000000E9447006B
:100310002FEF83ED90E3215080409040E1F700C043
:1003200000000E94A50284E190E00E9441028091B9
:10033000650090916600880F991F0E9441022FEF7F
:1003400089E698E1215080409040E1F700C000002C
:100350000E944D002FEF83EC99E0215080409040A7
:10036000E1F700C000000E94710385B3806485BB83
:1003700085B3806885BB04C081E090E00E94A9023B
:100380000E9466049B01AC01C701B6010E940705EB
:10039000882394F32FEF81EE94E021508040904029
:1003A000E1F700C000006091690070916A00072EBB
:1003B000000C880B990B0E94B60520E030E040E06D
:1003C0005FE30E9466069B01AC010E949B040E94B1
:1003D0007E05CB010E94750380E090E0FF90EF90D6
:1003E000DF90CF90BF90AF909F908F907F906F9055
:1003F0005F904F90089580EF8ABB089580E18BBB9A
:100400002FEF81EE94E0215080409040E1F700C052
:10041000000080E48BBB2FEF81EE94E02150804000
:100420009040E1F700C0000080EC8BBB2FEF81EE25
:1004300094E0215080409040E1F700C0000080E847
:100440008BBB2FEF81EE94E0215080409040E1F78C
:1004500000C0000080E38BBB2FEF81EE94E02150C1
:1004600080409040E1F700C0000080E98BBB2FEF97
:1004700081EE94E0215080409040E1F700C0000000
:100480000895BC0120E030E05BC094E292BB4FE7EE
:1004900058E381E0415050408040E1F700C0000047
:1004A00040E242BB4FE758E381E04150504080407A
:1004B000E1F700C0000040E342BB4FE758E381E0B2
:1004C000415050408040E1F700C0000040E142BB95
:1004D0004FE758E381E0415050408040E1F700C0D1
:1004E000000048E142BB4FE758E381E041505040F3
:1004F0008040E1F700C0000048E042BB4FE758E30E
:1005000081E0415050408040E1F700C000004CE0E5
:1005100042BB4FE758E381E0415050408040E1F753
:1005200000C0000044E042BB4FE758E381E0415087
:1005300050408040E1F700C0000092BB2F5F3F4F6A
:10054000261737070CF4A1CF089581B3806481BBCF
:100550000895BC0120E030E05BC090E998BB4FEF0C
:1005600050E782E0415050408040E1F700C0000079
:1005700040E848BB4FEF50E782E041505040804098
:10058000E1F700C0000040EC48BB4FEF50E782E0CD
:10059000415050408040E1F700C0000040E448BBBB
:1005A0004FEF50E782E0415050408040E1F700C0FB
:1005B000000040E648BB4FEF50E782E0415050401A
:1005C0008040E1F700C0000040E248BB4FEF50E739
:1005D00082E0415050408040E1F700C0000040E31D
:1005E00048BB4FEF50E782E0415050408040E1F778
:1005F00000C0000040E148BB4FEF50E782E04150AF
:1006000050408040E1F700C0000098BB2F5F3F4F93
:10061000261737070CF4A1CF0895BC0120E030E085
:100620005BC090E998BB4FEF50E782E041505040EB
:100630008040E1F700C0000040E148BB4FEF50E7C9
:1006400082E0415050408040E1F700C0000040E3AC
:1006500048BB4FEF50E782E0415050408040E1F707
:1006600000C0000040E248BB4FEF50E782E041503D
:1006700050408040E1F700C0000040E648BB4FEF2B
:1006800050E782E0415050408040E1F700C0000058
:1006900040E448BB4FEF50E782E04150504080407B
:1006A000E1F700C0000040EC48BB4FEF50E782E0AC
:1006B000415050408040E1F700C0000040E848BB96
:1006C0004FEF50E782E0415050408040E1F700C0DA
:1006D000000098BB2F5F3F4F261737070CF4A1CFC0
:1006E000089587B3806787BB0895BC0120E030E0A0
:1006F0005BC094E295BB4FE758E381E04150504026
:100700008040E1F700C0000040E245BB4FE758E3FE
:1007100081E0415050408040E1F700C0000040E3DC
:1007200045BB4FE758E381E0415050408040E1F73E
:1007300000C0000040E145BB4FE758E381E0415075
:1007400050408040E1F700C0000048E145BB4FE762
:1007500058E381E0415050408040E1F700C0000084
:1007600048E045BB4FE758E381E0415050408040AE
:10077000E1F700C000004CE045BB4FE758E381E0E3
:10078000415050408040E1F700C0000044E045BBCC
:100790004FE758E381E0415050408040E1F700C00E
:1007A000000095BB2F5F3F4F261737070CF4A1CFF2
:1007B0000895BC0120E030E05BC094E295BB4FE7B8
:1007C00058E381E0415050408040E1F700C0000014
:1007D00044E045BB4FE758E381E041505040804042
:1007E000E1F700C000004CE045BB4FE758E381E073
:1007F000415050408040E1F700C0000048E045BB58
:100800004FE758E381E0415050408040E1F700C09D
:10081000000048E145BB4FE758E381E041505040BC
:100820008040E1F700C0000040E145BB4FE758E3DE
:1008300081E0415050408040E1F700C0000040E3BB
:1008400045BB4FE758E381E0415050408040E1F71D
:1008500000C0000040E245BB4FE758E381E0415053
:1008600050408040E1F700C0000095BB2F5F3F4F34
:10087000261737070CF4A1CF089584B3806484BB96
:10088000089510BC89E189B988E18AB980B58E6084
:1008900080BD08955F9BFECF8CB190E008951F92BC
:1008A0000F920FB60F9211248F939F938091630044
:1008B00090916400019690936400809363009F91EF
:1008C0008F910F900FBE0F901F901895789494E021
:1008D00099BF1FBC8BB381608BBB85E38A95F1F711
:1008E00000008BB38E7F8BBB1DBC1CBC81E48EBD16
:1008F00080E288BF98BF08B605FEFDCF1DBC1CBCBA
:1009000081E08EBD80E288BF84E088BF10926400E1
:100910001092630008B605FEFDCF66B577B580E09E
:1009200090E00E94B60520E030EC47E654E40E94D7
:100930000C0508955058BB27AA270E94B2040C94B6
:100940002C060E941E0638F00E94250620F039F47D
:100950009F3F19F426F40C941B060EF4E095E7FB78
:100960000C941506E92F0E943D0658F3BA1762074A
:1009700073078407950720F079F4A6F50C945F06B9
:100980000EF4E0950B2EBA2FA02D0B01B9019001AA
:100990000C01CA01A0011124FF27591B99F0593FEE
:1009A00050F4503E68F11A16F040A22F232F342F36
:1009B0004427585FF3CF469537952795A795F04084
:1009C0005395C9F77EF41F16BA0B620B730B840B99
:1009D000BAF09150A1F0FF0FBB1F661F771F881F51
:1009E000C2F70EC0BA0F621F731F841F48F48795A9
:1009F00077956795B795F7959E3F08F0B0CF93959B
:100A0000880F08F09927EE0F9795879508950E9413
:100A1000F10508F481E008950E9420050C942C064D
:100A20000E94250658F00E941E0640F029F45F3F00
:100A300029F00C94150651110C9460060C941B06B9
:100A40000E943D0668F39923B1F3552391F3951B5A
:100A5000550BBB27AA2762177307840738F09F5FDF
:100A60005F4F220F331F441FAA1FA9F335D00E2E4C
:100A70003AF0E0E832D091505040E695001CCAF7B9
:100A80002BD0FE2F29D0660F771F881FBB1F26177C
:100A900037074807AB07B0E809F0BB0B802DBF0153
:100AA000FF2793585F4F3AF09E3F510578F00C9422
:100AB00015060C9460065F3FE4F3983ED4F38695E8
:100AC00077956795B795F7959F5FC9F7880F911D43
:100AD0009695879597F90895E1E0660F771F881F2F
:100AE000BB1F621773078407BA0720F0621B730BE2
:100AF000840BBA0BEE1F88F7E09508950E948505D8
:100B00006894B1110C94600608950E94450688F01F
:100B10009F5798F0B92F9927B751B0F0E1F0660FC1
:100B2000771F881F991F1AF0BA95C9F714C0B13002
:100B300091F00E945F06B1E008950C945F06672F64
:100B4000782F8827B85F39F0B93FCCF38695779531
:100B50006795B395D9F73EF490958095709561951A
:100B60007F4F8F4F9F4F0895E89409C097FB3EF445
:100B700090958095709561957F4F8F4F9F4F9923EA
:100B8000A9F0F92F96E9BB279395F6958795779568
:100B90006795B795F111F8CFFAF4BB0F11F460FF28
:100BA0001BC06F5F7F4F8F4F9F4F16C0882311F080
:100BB00096E911C0772321F09EE8872F762F05C094
:100BC000662371F096E8862F70E060E02AF09A952F
:100BD000660F771F881FDAF7880F9695879597F924
:100BE0000895990F0008550FAA0BE0E8FEEF1616BE
:100BF0001706E807F907C0F012161306E407F50711
:100C000098F0621B730B840B950B39F40A2661F084
:100C1000232B242B252B21F408950A2609F4A14027
:100C2000A6958FEF811D811D089597F99F6780E834
:100C300070E060E008959FEF80EC089500240A942E
:100C40001616170618060906089500240A941216A7
:100C50001306140605060895092E0394000C11F4DA
:100C6000882352F0BB0F40F4BF2B11F460FF04C087
:100C70006F5F7F4F8F4F9F4F089557FD9058440FE0
:100C8000551F59F05F3F71F04795880F97FB991FEB
:100C900061F09F3F79F087950895121613061406A8
:100CA000551FF2CF4695F1DF08C016161706180635
:100CB000991FF1CF86957105610508940895E89410
:100CC000BB2766277727CB0197F908950E947906FD
:100CD0000C942C060E941E0638F00E94250620F077
:100CE000952311F00C9415060C941B0611240C94FA
:100CF00060060E943D0670F3959FC1F3950F50E08A
:100D0000551F629FF001729FBB27F00DB11D639FBD
:100D1000AA27F00DB11DAA1F649F6627B00DA11D63
:100D2000661F829F2227B00DA11D621F739FB00D09
:100D3000A11D621F839FA00D611D221F749F332779
:100D4000A00D611D231F849F600D211D822F762F12
:100D50006A2F11249F5750409AF0F1F088234AF0EF
:100D6000EE0FFF1FBB1F661F771F881F915050405B
:100D7000A9F79E3F510580F00C9415060C9460066F
:100D80005F3FE4F3983ED4F3869577956795B795E2
:100D9000F795E7959F5FC1F7FE2B880F911D9695FC
:100DA000879597F90895A1E21A2EAA1BBB1BFD0196
:100DB0000DC0AA1FBB1FEE1FFF1FA217B307E4073A
:100DC000F50720F0A21BB30BE40BF50B661F771F92
:100DD000881F991F1A9469F7609570958095909572
:0E0DE0009B01AC01BD01CF010895F894FFCF37
:00000001FF
