S0160000496E646976696475616C436F64652E737265638A
S11300000C942A000C9447000C9447000C9447006D
S11300100C9447000C9447000C9447000C94470040
S11300200C9447000C9447000C9447000C94470030
S11300300C9447000C9447000C9447000C94470020
S11300400C9447000C9447000C9447000C94470010
S11300500C94470011241FBECFE5D8E0DEBFCDBF0E
S113006011E0A0E6B0E0E6E7FFE002C005900D92E3
S1130070AE32B107D9F721E0AEE2B1E001C01D9282
S1130080AB33B207E1F70E94C5010C94B9070C9495
S1130090000084B3886084BB88E085BB8FE19EE464
S11300A00197F1F700C0000085B3877F85BB0895F1
S11300B082B38B7F82BB0895829B03C081E090E072
S11300C0089580E090E0089582B3877F82BB08950D
S11300D0839B03C081E090E0089580E090E0089560
S11300E08EEF8BBBCC9908C08FED9EE20197F1F7A0
S11300F000C0000087E30895CD9908C08FED9EE20B
S11301000197F1F700C0000088E30895CE9908C074
S11301108FED9EE20197F1F700C0000089E3089596
S1130120CF9908C08FED9EE20197F1F700C000005F
S11301308FE208958DEF8BBBCC9908C08FED9EE2C2
S11301400197F1F700C0000084E30895CD9908C039
S11301508FED9EE20197F1F700C0000085E308955A
S1130160CE9908C08FED9EE20197F1F700C0000020
S113017086E30895CF9908C08FED9EE20197F1F7C9
S113018000C000008AE208958BEF8BBBCC9908C0B5
S11301908FED9EE20197F1F700C0000081E308951E
S11301A0CD9908C08FED9EE20197F1F700C00000E1
S11301B082E30895CE9908C08FED9EE20197F1F78E
S11301C000C0000083E30895CF9908C08FED9EE23C
S11301D00197F1F700C000008DE2089587EF8BBB13
S11301E0CC9908C08FED9EE20197F1F700C00000A2
S11301F083E40895CD9908C08FED9EE20197F1F74D
S113020000C0000080E30895CE9908C08FED9EE2FF
S11302100197F1F700C000008DE30895CF9908C05D
S11302208FED9EE20197F1F700C000008BE2089584
S1130230089592B39F7D92BB92B39F7B92BB982FFC
S1130240907F98BB92B3906892BB2FEF31EE94E00D
S1130250215030409040E1F700C0000092B39F77F6
S113026092BB8295807F88BB82B3806882BB2FEF6C
S113027031EE84E0215030408040E1F700C00000BE
S113028082B38F7782BB089592B3906292BB92B38C
S11302909F7B92BB982F907F98BB92B3906892BB40
S11302A02FEF31EE94E0215030409040E1F700C050
S11302B0000092B39F7792BB8295807F88BB82B304
S11302C0806882BB2FEF31EE84E0215030408040C3
S11302D0E1F700C0000082B38F7782BB08958FEFEF
S11302E087BB81BB82B38F7782BB83E30E941901F2
S11302F082E30E94190188E20E9419018EE00E94A3
S1130300190181E00E9419012FEF81EE94E0215040
S113031080409040E1F700C0000008950F931F93C0
S1130320CF938C01C0E003C00E944401CF5FF80169
S1130330EC0FF11D80818111F7CFCF911F910F91A7
S113034008959C0140E050E060E472E48FE090E0A6
S11303500E9497072150310930BD29B988E08AB934
S11303608EE880BD789408955D9BFECF8CB9089586
S1130370CF93DF93EC0103C021960E94B4018881DE
S11303808111FACFDF91CF9108950F931F93CF93EB
S1130390DF938FE08ABB84B3846084BB80E895E2FA
S11303A00E94A1010E946F0180E690E00E948E01EC
S11303B02FEF81EE94E0215080409040E1F700C09F
S11303C0000081E00E9419018EE00E9419012FEFC4
S11303D081EE94E0215080409040E1F700C000009D
S11303E081E790E00E948E0180EC0E94190180EF69
S11303F08BBB89B3803F81F00E94700080933401ED
S11304008D3351F0282F30E02053310930933101DE
S1130410209330010E944401809134018D3339F7D7
S113042081E00E9419018FE790E00E948E012FEF76
S113043085EA9EE0215080409040E1F700C0000032
S113044080913001909131018130910509F0BDC155
S11304500E9458000E945C00892BC1F480E990E05E
S11304600E948E010E94490081E00E9419018EE0E1
S11304700E9419012FEF81EE94E0215080409040BA
S1130480E1F700C0000088E00E9419010E94F50510
S113049081E090E00E94FE050E9464000E946800D2
S11304A0019709F085C181E00E94190180EA90E07A
S11304B00E948E012FEF81EE94E021508040904005
S11304C0E1F700C0000080EC0E9419012FEF81EEDB
S11304D094E0215080409040E1F700C0000080EF9C
S11304E08BBB89B3803F09F44AC00E94700080939B
S11304F036018F3241F08B3231F08A3221F083346D
S113050011F08D32F9F481E00E9419018EE00E940D
S113051019012FEF81EE94E0215080409040E1F7E3
S113052000C000000E9449008EEA90E00E948E0103
S11305302FEF81EE94E0215080409040E1F700C01D
S11305400000B1CF8D33D9F02091320130913301C5
S1130550A901440F551F220F331F220F331F220FEF
S1130560331F240F351F482F50E040535109240FE7
S1130570351F30933301209332010E94440180914E
S113058036018D3309F0ABCF809132019091330164
S1130590823391050CF0E4C081E00E9419018EE0E1
S11305A00E9419012FEF81EE94E021508040904089
S11305B0E1F700C000008DEB90E00E948E012FEF68
S11305C081EE94E0215080409040E1F700C00000AB
S11305D080EC0E94190180EF8BBB89B3803F09F442
S11305E045C00E947000809335018F3241F08B32F8
S11305F031F08A3221F0833411F08D32F9F481E044
S11306000E9419018EE00E9419012FEF81EE94E0FF
S1130610215080409040E1F700C000000E94490052
S11306208EEA90E00E948E012FEF81EE94E021503B
S113063080409040E1F700C00000AECF8D33B1F0B0
S113064020912E0130912F019AE0929FA001939F57
S1130650500D1124282F30E020533109240F351F69
S113066030932F0120932E010E9444018091350183
S11306708D3309F0B0CF81E00E9419018FE790E03B
S11306800E948E012FEF85EA9EE021508040904029
S1130690E1F700C0000081E00E9419018CEC90E0B9
S11306A00E948E012FEF85EA9EE021508040904009
S11306B0E1F700C000000E9464050E9489050E94C1
S11306C0020600E010E043C00E946805219602C0C3
S11306D0C0E0D0E080913201909133019C01220F5F
S11306E0331F880F991F880F991F880F991F820F36
S11306F0931FC817D90744F32FEF81EE94E02150DC
S113070080409040E1F700C0000002C00E948D05C7
S11307100E9445060A97D4F32FEF81EE94E021500E
S113072080409040E1F700C0000002C00E94C10573
S11307300E9445060497D4F72FEF85EA9EE02150E6
S113074080409040E1F700C000000F5F1F4F809190
S11307502E0190912F01081719070CF4B9CF67C126
S1130760C2972CF464C10E946805219602C0C0E0BF
S1130770D0E020913201309133014AE0429FC00120
S1130780439F900D1124C817D9076CF3849B08C0AC
S113079080E00E941E058EED90E00E94B801F6CF25
S11307A081E00E941E0580EE90E00E94B801EECF29
S11307B081E00E94190182EE90E00E948E010E9465
S11307C0490088E00E94190132C1892B09F01AC13D
S11307D00E94F50580E090E00E94FE0581E00E9401
S11307E0190182EF90E00E948E012FEF81EE94E0D8
S11307F0215080409040E1F700C0000080EC0E944E
S1130800190180EF8BBB89B3803F09F44AC00E9471
S11308107000809336018F3241F08B3231F08A328E
S113082021F0833411F08D32F9F481E00E94190132
S11308308EE00E9419012FEF81EE94E02150804058
S11308409040E1F700C000000E9449008EEA90E069
S11308500E948E012FEF81EE94E021508040904061
S1130860E1F700C00000BACF8D33D9F020913201F6
S113087030913301A901440F551F220F331F220F5A
S1130880331F220F331F240F351F482F50E04053CE
S11308905109240F351F30933301209332010E94F4
S11308A04401809136018D3309F0ABCF81E00E9481
S11308B019018EE00E9419012FEF81EE94E021507E
S11308C080409040E1F700C0000080E091E00E9489
S11308D08E012FEF81EE94E0215080409040E1F7AB
S11308E000C0000080EC0E94190180EF8BBB89B32B
S11308F0803F09F44AC00E947000809335018F3212
S113090041F08B3231F08A3221F0833411F08D3290
S1130910F9F481E00E9419018EE00E9419012FEF81
S113092081EE94E0215080409040E1F700C0000047
S11309300E9449008EEA90E00E948E012FEF81EE22
S113094094E0215080409040E1F700C00000AECF19
S11309508D33D9F020912E0130912F01A901440F3C
S1130960551F220F331F220F331F220F331F240F53
S1130970351F482F50E040535109240F351F309341
S11309802F0120932E010E944401809135018D3363
S113099009F0ABCF81E00E9419018FE790E00E943B
S11309A08E012FEF85EA9EE0215080409040E1F7D0
S11309B000C0000081E00E9419018EE091E00E94D5
S11309C08E012FEF85EA9EE0215080409040E1F7B0
S11309D000C000000E94F50580913201909133011E
S11309E00E94FE052FEF89E698E121508040904057
S11309F0E1F700C0000080912E0190912F010E9428
S1130A00FE0515C081E00E9419018EE191E00E946B
S1130A108E010E9449002FEF81EE94E02150804026
S1130A209040E1F700C0000088E00E94190180E0D6
S1130A3090E0DF91CF911F910F910895811120C013
S1130A4090E03FC085B3846085BB80E007C0EFE8D9
S1130A50F1E03197F1F700C000008F5F8930B8F3FF
S1130A6085B38B7F85BB80E007C0EFE8F1E0319769
S1130A70F1F700C000008F5F8930B8F39F5F01C0B9
S1130A8090E09436F8F2089585B3846085BB80E0E5
S1130A9007C0E7ECF0E03197F1F700C000008F5F8A
S1130AA08C31B8F385B38B7F85BB80E007C0E7EC5E
S1130AB0F0E03197F1F700C000008F5F8C31B8F39C
S1130AC09F5F943608F3089584B3806F84BB0895C0
S1130AD080E985BB8FE99FE00197F1F700C0000032
S1130AE080EC85BB8FE99FE00197F1F700C000001F
S1130AF080E685BB8FE99FE00197F1F700C0000015
S1130B0080E385BB8FE99FE00197F1F700C0000007
S1130B10089587B38F6087BB089580E090E02DC06F
S1130B2029E028BB2FEF31EE44E021503040404013
S1130B30E1F700C000002CE022BB2FEF31EE44E0CF
S1130B40215030404040E1F700C0000026E022BBC5
S1130B502FEF31EE44E0215030404040E1F700C037
S1130B60000023E022BB2FEF31EE44E0215030405F
S1130B704040E1F700C0000001961816190684F6FB
S1130B80089580E090E02DC029E022BB2FEF31EEE4
S1130B9044E0215030404040E1F700C0000023E031
S1130BA022BB2FEF31EE44E0215030404040E1F7CA
S1130BB000C0000026E022BB2FEF31EE44E02150BC
S1130BC030404040E1F700C000002CE022BB2FEF92
S1130BD031EE44E0215030404040E1F700C00000D5
S1130BE001961816190684F6089510BC89E189B98E
S1130BF088E18AB980B58E6080BD08955D9BFECF83
S1130C008CB9089584B3816084BB089585B38160F1
S1130C1085BB85E08A95F1F785B38E7F85BB089502
S1130C201FBC82E08EBD1DBC1CBC80E090E0DC01DA
S1130C300AC0999B0FC02CB53DB521363A4E50F4ED
S1130C400196A11DB11D803C27E2920729E0A2076D
S1130C50B10578F3803C9742A940B10581F08CB589
S1130C609DB5A0E0B0E01EBC81362AEE9207A10536
S1130C70B10540F4B695A7959795879508958EEF9D
S1130C809FEF08958EEF9FEF08958FEF87BB0E942B
S1130C9002060E9406060E941006BC0180E090E055
S1130CA00E949C0626E933E44BE05DE30E940207C0
S1130CB020E030E040E05FE30E9402070E94660605
S1130CC070933A0160933901CB0108950E946D0637
S1130CD06894B1110C94FC0608950E94E10688F012
S1130CE09F5798F0B92F9927B751B0F0E1F0660FEC
S1130CF0771F881F991F1AF0BA95C9F714C0B1302D
S1130D0091F00E94FB06B1E008950C94FB06672F56
S1130D10782F8827B85F39F0B93FCCF3869577955B
S1130D206795B395D9F73EF4909580957095619544
S1130D307F4F8F4F9F4F0895E89409C097FB3EF46F
S1130D4090958095709561957F4F8F4F9F4F992314
S1130D50A9F0F92F96E9BB279395F6958795779592
S1130D606795B795F111F8CFFAF4BB0F11F460FF52
S1130D701BC06F5F7F4F8F4F9F4F16C0882311F0AA
S1130D8096E911C0772321F09EE8872F762F05C0BE
S1130D90662371F096E8862F70E060E02AF09A9559
S1130DA0660F771F881FDAF7880F9695879597F94E
S1130DB0089557FD9058440F551F59F05F3F71F047
S1130DC04795880F97FB991F61F09F3F79F08795AE
S1130DD00895121613061406551FF2CF4695F1DF37
S1130DE008C0161617061806991FF1CF86957105C7
S1130DF0610508940895E894BB2766277727CB01FB
S1130E0097F908950E9415070C9486070E947807A5
S1130E1038F00E947F0720F0952311F00C946F079F
S1130E200C94750711240C94FC060E94D90670F3E7
S1130E30959FC1F3950F50E0551F629FF001729F7B
S1130E40BB27F00DB11D639FAA27F00DB11DAA1F8A
S1130E50649F6627B00DA11D661F829F2227B00DD7
S1130E60A11D621F739FB00DA11D621F839FA00D62
S1130E70611D221F749F3327A00D611D231F849FB2
S1130E80600D211D822F762F6A2F11249F57504009
S1130E909AF0F1F088234AF0EE0FFF1FBB1F661F84
S1130EA0771F881F91505040A9F79E3F510580F04D
S1130EB00C946F070C94FC065F3FE4F3983ED4F364
S1130EC0869577956795B795F795E7959F5FC1F7F1
S1130ED0FE2B880F911D9695879597F9089597F99C
S1130EE09F6780E870E060E008959FEF80EC0895CC
S1130EF000240A94161617061806090608950024F5
S1130F000A9412161306140605060895092E03946E
S1130F10000C11F4882352F0BB0F40F4BF2B11F4E2
S1130F2060FF04C06F5F7F4F8F4F9F4F0895A1E212
S1130F301A2EAA1BBB1BFD010DC0AA1FBB1FEE1F4F
S1130F40FF1FA217B307E407F50720F0A21BB30B9A
S1130F50E40BF50B661F771F881F991F1A9469F716
S1130F6060957095809590959B01AC01BD01CF0172
S1090F700895F894FFCF80
S1130F762E2E2E2E5354415254494E472E2E2E2E8B
S1130F860053747269703A302F4375743A31002DE8
S1130F962D2D50726F63657373696E672D2D2D0049
S1130FA62E2E2E2E4E4F20574952452E2E2E2E00D3
S1130FB6456E746572204C656E6774683A00496EB6
S1130FC676616C696420496E70757421004E6F2ECB
S1130FD6206F66207069656365733A002D2D446140
S1130FE674612041636365707465642D2D0041004E
S1130FF642002D2D2D2D2D4552524F522D2D2D2D86
S11310062D005374726970206865696768743A00C4
S11310165374726970206C656E6774683A002D4467
S11310266174612041636365707465642D002D43AA
S1111036616E2774204163636570742D0000A1
S9030000FC
